:020000040800F2
:100000007806002065010008590C0008110C000852
:1000100000000000000000000000000000000000E0
:100020000000000000000000000000005D0C00085F
:1000300000000000000000005B0C00085F0C0008DE
:1000400077010008770100087701000877010008B0
:1000500077010008770100087701000877010008A0
:100060000000000077010008770100087701000810
:100070007701000877010008770100087701000880
:100080007701000877010008770100087701000870
:1000900000000000770100087701000877010008E0
:1000A0007701000877010008770100087701000850
:1000B0007701000877010008000000000000000040
:1000C00000F002F800F03EF80CA030C80838241800
:1000D0002D18671EA246AB4654465D46AC4201D180
:1000E00000F030F87E460F3EB6460FCC0126334274
:1000F00000D0FB1A3343A246AB461847300E00002F
:10010000500E0000103A02D378C878C1FAD85207CE
:1001100001D330C830C101D504680C6070470000BD
:100120000023002400250026103A01D378C1FBD813
:10013000520700D330C100D50B6070471FB51FBDFB
:1001400010B510BD00F02DF81146FFF7F7FF00F0D5
:100150008BFD00F045F803B4FFF7F2FF03BC00F09D
:100160004BF800000748804707480047FEE7FEE7D6
:10017000FEE7FEE7FEE7FEE704480549054A064BB1
:1001800070470000670C0008C100000878000020DC
:10019000780600207802002078020020704770471F
:1001A0007047754600F024F8AE4605006946534690
:1001B000C008C000854618B020B5FFF7DDFF60BC61
:1001C000B64600260027C0C5C0C5C0C5C0C5C0C54D
:1001D000C0C5C0C5C0C5403D490849008D467047EF
:1001E00010B50446C046C0462046FFF7B4FF10BD18
:1001F000004870471000002001491820ABBEFEE700
:100200002600020070470000B0B5044600F0FEF87A
:100210000546601C02D09E480078041900F0F6F8EC
:10022000401BA042FAD3B0BDF0B58CB00B916A4A26
:10023000904201D0052200E0032200920B990F6842
:10024000002F00D1C6E0012300263546029309960F
:1002500008960A9013E03A43614802600A980B9AA4
:1002600017683A46DA40361D08355B1C0999891C27
:1002700009910899491C0891002A00D1AAE0591E49
:10028000029C07918C402740E9D0069505960B9A71
:10029000516803260D4635406A1E012A04911BD879
:1002A000032209998A400A98806890430B9EF66859
:1002B0008E4006430A9886600498C006C00F0799CE
:1002C00088400A9E7668A64306430A984660D4434F
:1002D0000A98089949000BE0324609998A40D443AC
:1002E000032D05D1099903913546059E049923E014
:1002F000C268019422400B9CA4688C401443C460E3
:10030000022D039115D11C20059E30400F22824002
:100310000799CC08A4000A9D2C19256A95430B99CE
:100320000A6982402A4322620A98496803250D40DF
:1003300001E0059E0499019C039A954002682240C1
:100340002A4302608A03920F069D88D01820284015
:100350000F2585400322079991430A9A1F4C66187E
:10036000346EAC43603605252D07AA4208D01D4DDA
:10037000AA4207D01C4DAA42009D04D1022502E0EA
:10038000002500E0012585402543356013480268BB
:100390000B984068C40201D53A4300E0BA43059E79
:1003A000069D0E4C22606268840201D53A4300E04B
:1003B000BA430A4C62600A4A5268840301D53A4340
:1003C00000E0BA43064C62602268C00300D542E7F1
:1003D000BA4341E70CB0F0BD000C005000180240D9
:1003E00080180240000400500008005042690B468B
:1003F00093430A401104C91881617047002A02D052
:1004000018228150704728228150704705480068A3
:100410007047C0461E48007802490A6810180860F4
:100420007047C0467000002010B501242002CD495D
:100430000A6802430A60032000F00AF8002801D08D
:10044000204610BD00F026F80024204610BDC0460E
:1004500070B50F4E31780124002916D005467D2055
:10046000C00000F047FC0146C448006800F042FCB0
:1004700000F0B4FB032D08D8002806D10024E04387
:100480002946224600F01CF87560204670BDC04623
:100490000000002082B009484168012211434160F8
:1004A0004168114001910199110702680A430260F5
:1004B000006808400090009802B070473C1002406D
:1004C000002805D40322034693430C4A9A1806E0F9
:1004D0000F220240083A03239A43074BD2188007A1
:1004E000C00E8901C9B28140FF2383401068984340
:1004F000084310607047C0461CED00E000E400E0D7
:10050000F0B581B0032569021A4E3246143A1368D9
:100510008B4303431360012461020022884226D1E9
:10052000964801683068400521D50092A702062050
:100530004843114900F0DEFB201A022816D031682A
:1005400039420FD0012811D0316839420AD0002831
:100550000CD03168394205D0001D032806D031681F
:100560003942EAD1009A104601B0F0BD2A46104641
:1005700001B0F0BD1470004040420F00F0B583B0F0
:100580000D46012100281BD001910290754800689A
:1005900007242040A84216D272490868A043284385
:1005A0000860714EFFF732FF07466E480068204032
:1005B000A84208D0FFF72AFFC01BB042F5D903219B
:1005C000084603B0F0BD029E30688107674B0CD52A
:1005D000410703D521031A680A431A600F21090253
:1005E0001A688A43B16811431960C0071BD15D487E
:1005F00000682040A8422CD95A490868A0432843E3
:100600000860594FFFF702FF064656480068204031
:10061000A8421ED0FFF7FAFE801BB842F5D903218D
:10062000084603B0F0BD0298406803285DD88100F9
:1006300001A251588F46C04649060008EF0600083F
:10064000F906000803070008194608390968490532
:1006500059E0029A10784007444B05D520031968E9
:100660008143D0680843186018688006400F22D084
:100670001A6838210A403E48082A23D01A680A40DE
:10068000102A5ED1596803220A40032A00D0394853
:1006900059684906490F491C00F02CFB3349496849
:1006A0004904490E484331494968490F491C00F043
:1006B00021FB2E4B06E01846083800688004410FE5
:1006C0002C48C840196889093C220A402A4989589F
:1006D0001F220A40D0402949086029480068FFF7D6
:1006E000B7FE0146084603B0F0BD596D0AE0194651
:1006F00008390968890306E019460839096889013B
:1007000001E0996D8907019900D459E71968A1435F
:1007100001431960144FFFF779FE0646134800683D
:100720003821014002984068C000814200D15EE754
:10073000FFF76CFE801BB842F0D90321084603B0D6
:10074000F0BD18680840202802D10120C003B9E795
:1007500018680840182801D00020B3E77D20000267
:10076000B0E7C04600200240881300000810024095
:1007700000127A000024F400EC0E000808000020AB
:1007800004000020F0B587B00125002800D1F9E170
:10079000049505900078C007FC4F2AD0B868F96826
:1007A00003252A468A4338210140102048408218F8
:1007B00050425041082914D0002812D105984268AF
:1007C000012001048A4208D005231B049A4200D06C
:1007D00005E182043B6813433B603A680A433A6090
:1007E00006E13868800304D505984068002800D1E8
:1007F00050E105980078800716D405980078000726
:1008000045D4059A107840074ED4D469002C00D105
:100810009EE1B86838210140102900D0B6E0012CD3
:1008200000D010E1049DADE1B968382008401021E6
:100830004140FA680326324002235340CA1851420D
:1008400051410125AC0200283AD0002938D138683E
:10085000059AD168002900D1D8E00721C902884350
:100860001169014339602802396801433960FFF793
:10087000CDFD05463868204200D0DAE0FFF7C6FD1E
:10088000401B0228F6D93546284607B0F0BDB868A7
:100890003821014018293BD1386E8007B1D5059821
:1008A00080690028ADD1F5E0B868382101402029E1
:1008B00045D1F86D8007A8D590680028A5D1E9E05A
:1008C00039682142059B03D0D968002900D159E13C
:1008D0007F2109027A688A435969090211437960C4
:1008E00000280DD10720C0023968814318690843E8
:1008F000386038688004400FB149C140B148016098
:10090000B1480068FFF7A4FD002800D03AE174E781
:10091000386E05998969002900D1CAE00121084390
:100920003866FFF773FD0646386E800700D568E726
:10093000FFF76CFD801B03250228F5D922E1012079
:1009400003900107F86B0840029006D1F86B08434A
:10095000F863F86B08400690069801919B48006880
:10096000C0052BD403980402984908682043086006
:10097000FFF74CFD06469548006820421ED1FFF760
:1009800045FD801B03250228F5D9FBE0012529063A
:100990003868049188433860FFF738FD0646022C1A
:1009A0007CD103956C063868204200D1A0E0FFF7A7
:1009B0002DFD801B03250228F5D9E3E0059880680A
:1009C000834C012806D0052800D0C5E0F86D04212D
:1009D0000143F965F86D03990843F865C6E03B6883
:1009E0008B433B6081043B688B433B60002A71D0A2
:1009F0004404FFF70BFD06463868204200D0F8E6B5
:100A0000FFF704FD801B6428F6D9BBE02902884368
:100A10003860FFF7FBFC05463868204200D1ECE661
:100A2000FFF7F4FC401B0228F6D93546284607B0EC
:100A3000F0BD7F200002796881430598406900027B
:100A400008437860D9E6F86803210140059B1A6ADB
:100A500091421FD1702101405A6A91421AD17F21DF
:100A6000090201409A6A1202914213D11F214904DE
:100A70000140DA6A91420DD107214A0602401C4624
:100A80001B6B9A42049D7DD149070840616B8842E7
:100A900078D15DE0049D284607B0F0BD6C0638684B
:100AA000204251D0FFF7B2FC801B03250228F6D963
:100AB00068E0012188433866FFF7A8FC0646386ED7
:100AC000800700D49DE6FFF7A1FC801B03250228C8
:100AD000F5D957E04404FFF799FC064638682042F0
:100AE00000D186E6FFF792FC801B6428F6D949E026
:100AF000F868394901400598026A456A836AC66AFE
:100B00000196066B0296406B0A432A431902114371
:100B1000019A1143029A11430143F960386804991C
:100B20000843386003980007F9680143F960FFF74C
:100B30006DFC0646386820420AD1FFF767FC801B2F
:100B400003250228F6D91DE0F86822490140F96022
:100B50000025284607B0F0BDF96D039A9143F96569
:100B6000F96D04229143F965002811D0FFF74EFC7E
:100B70000646F86D800718D4FFF748FC801B032554
:100B8000A042F6D9284607B0F0BDC046001002408A
:100B9000FFF73CFC0646F86D800706D5FFF736FCEC
:100BA000801B0325A042F6D9ECE702980028059A9D
:100BB00000D02AE6F86B01998843F86325E6C04621
:100BC0000024F40008000020040000200070004011
:100BD00088130000FCFFFEEE8C80C111401E010E48
:100BE00001D0012070470749074A50600748036851
:100BF0000B400321890759180160002090600721EC
:100C000011607047FFFFFF0010E000E020ED00E002
:100C1000FEE70000F0B587B0002406940D48016897
:100C200002221143016000681040019001980127E1
:100C30003D022F4E304629462246FFF7DFFB059442
:100C400004940397029502A93046FFF7EDFA07B026
:100C5000F0BDC04634100240FEE77047704780B5D3
:100C6000FFF7D8FB80BD704792B0FFF7DDFB002691
:100C70000A9609960896079606960596012460023C
:100C8000FFF73EFC600711906006109060040F9023
:100C900008200E900D9602250C950B95402009908A
:100CA000089624020794049504A8FFF76BFD00281A
:100CB00003D0EFF3108072B6FEE70396029607208A
:100CC0000090019568462946FFF758FC002803D09C
:100CD000EFF3108072B6FEE7FFF79CFF044D284645
:100CE0002146FFF783FB6420FFF78EFAF7E7C04643
:100CF0000004005043088B421AD3002203098B42A0
:100D000079D3030A8B425ED3030B8B4242D3030C8D
:100D10008B4227D30902FF2212BA030C8B4202D363
:100D20001212090203D0030B8B4233D31AE0D3E033
:100D3000411A8041401C704703460B4371D443085D
:100D40008B42F5D3002203098B4254D3030A8B4212
:100D500039D3030B8B421DD3030C8B4202D3944631
:100D60006EE0090AC30B8B4201D3CB03C01A524178
:100D7000830B8B4201D38B03C01A5241430B8B422E
:100D800001D34B03C01A5241030B8B4201D30B0317
:100D9000C01A5241C30A8B4201D3CB02C01A52413E
:100DA000830A8B4201D38B02C01A5241430A8B4201
:100DB00001D34B02C01A5241030A8B4201D30B02EA
:100DC000C01A5241CDD2C3098B4201D3CB01C01A04
:100DD000524183098B4201D38B01C01A524143090E
:100DE0008B4201D34B01C01A524103098B4201D3FC
:100DF0000B01C01A5241C3088B4201D3CB00C01A69
:100E0000524183088B4201D38B00C01A52414308E0
:100E10008B4201D34B00C01A5241411A524110007B
:100E20007047CA0F00D04942031000D340425340DC
:100E300000229C4603098B422DD3030A8B4212D316
:100E40008901FC2212BA030A8B420CD38901921148
:100E50008B4208D3890192118B4204D3890137D088
:100E6000921100E08909C3098B4201D3CB01C01A5A
:100E7000524183098B4201D38B01C01A524143096D
:100E80008B4201D34B01C01A524103098B4201D35B
:100E90000B01C01A5241C3088B4201D3CB00C01AC8
:100EA000524183088B4201D38B00C01A5241D9D2E0
:100EB00043088B4201D34B00C01A5241411A00D261
:100EC00001465241104663465B1000D340427047D2
:100ED00063465B1000D3404201B50021004201D0BF
:100EE000C9430846C046C04602BD000000000000DD
:100EF00000000000000000000000000000000000F2
:100F000000000000000000000000000001000000E0
:100F100002000000030000000400000006000000C2
:100F2000070000000800000009000000500F000842
:100F3000000000201000000004010008600F0008FD
:100F400010000020680600002001000800000000DA
:100F500001000000040000000024F4000000000074
:04000005080000C12E
:00000001FF
